{
  "contractName": "TodoList",
  "abi": [
    {
      "inputs": [],
      "payable": false,
      "stateMutability": "nonpayable",
      "type": "constructor"
    },
    {
      "anonymous": false,
      "inputs": [
        {
          "indexed": false,
          "internalType": "uint256",
          "name": "id",
          "type": "uint256"
        },
        {
          "indexed": false,
          "internalType": "string",
          "name": "content",
          "type": "string"
        },
        {
          "indexed": false,
          "internalType": "enum TodoList.TaskState",
          "name": "state",
          "type": "uint8"
        }
      ],
      "name": "TaskCreated",
      "type": "event"
    },
    {
      "anonymous": false,
      "inputs": [
        {
          "indexed": false,
          "internalType": "uint256",
          "name": "id",
          "type": "uint256"
        },
        {
          "indexed": false,
          "internalType": "enum TodoList.TaskState",
          "name": "state",
          "type": "uint8"
        }
      ],
      "name": "TaskStatusChanged",
      "type": "event"
    },
    {
      "constant": true,
      "inputs": [],
      "name": "taskCount",
      "outputs": [
        {
          "internalType": "uint256",
          "name": "",
          "type": "uint256"
        }
      ],
      "payable": false,
      "stateMutability": "view",
      "type": "function"
    },
    {
      "constant": true,
      "inputs": [
        {
          "internalType": "uint256",
          "name": "",
          "type": "uint256"
        }
      ],
      "name": "tasks",
      "outputs": [
        {
          "internalType": "uint256",
          "name": "id",
          "type": "uint256"
        },
        {
          "internalType": "string",
          "name": "content",
          "type": "string"
        },
        {
          "internalType": "enum TodoList.TaskState",
          "name": "state",
          "type": "uint8"
        }
      ],
      "payable": false,
      "stateMutability": "view",
      "type": "function"
    },
    {
      "constant": false,
      "inputs": [
        {
          "internalType": "string",
          "name": "_content",
          "type": "string"
        }
      ],
      "name": "createTask",
      "outputs": [],
      "payable": false,
      "stateMutability": "nonpayable",
      "type": "function"
    },
    {
      "constant": false,
      "inputs": [
        {
          "internalType": "uint256",
          "name": "_id",
          "type": "uint256"
        },
        {
          "internalType": "enum TodoList.TaskState",
          "name": "_state",
          "type": "uint8"
        }
      ],
      "name": "changeState",
      "outputs": [],
      "payable": false,
      "stateMutability": "nonpayable",
      "type": "function"
    }
  ],
  "bytecode": "0x60806040526000805534801561001457600080fd5b5060408051808201909152601c81527f436865636b206f75742064617070756e69766572736974792e636f6d00000000602082015261005b906001600160e01b0361006016565b61022f565b6000805460010180825560408051606081018252918252602082018490529091908201526000805481526001602081815260409092208351815583830151805191936100b193850192910190610194565b50604082015160028201805460ff191660018360038111156100cf57fe5b02179055509050507f635eea5e1ac85102c6927bb3da243a983bf4c8139604efaf63d228e938b2b305600054826000604051808481526020018060200183600381111561011857fe5b60ff168152602001828103825284818151815260200191508051906020019080838360005b8381101561015557818101518382015260200161013d565b50505050905090810190601f1680156101825780820380516001836020036101000a031916815260200191505b5094505050505060405180910390a150565b828054600181600116156101000203166002900490600052602060002090601f016020900481019282601f106101d557805160ff1916838001178555610202565b82800160010185558215610202579182015b828111156102025782518255916020019190600101906101e7565b5061020e929150610212565b5090565b61022c91905b8082111561020e5760008155600101610218565b90565b61067a8061023e6000396000f3fe608060405234801561001057600080fd5b506004361061004c5760003560e01c8063111002aa146100515780636e630649146100f95780638d9776721461011f578063b6cb58a5146101d0575b600080fd5b6100f76004803603602081101561006757600080fd5b81019060208101813564010000000081111561008257600080fd5b82018360208201111561009457600080fd5b803590602001918460018302840111640100000000831117156100b657600080fd5b91908080601f0160208091040260200160405190810160405280939291908181526020018383808284376000920191909152509295506101ea945050505050565b005b6100f76004803603604081101561010f57600080fd5b508035906020013560ff1661031e565b61013c6004803603602081101561013557600080fd5b50356104ca565b604051808481526020018060200183600381111561015657fe5b60ff168152602001828103825284818151815260200191508051906020019080838360005b8381101561019357818101518382015260200161017b565b50505050905090810190601f1680156101c05780820380516001836020036101000a031916815260200191505b5094505050505060405180910390f35b6101d8610579565b60408051918252519081900360200190f35b60008054600101808255604080516060810182529182526020820184905290919082015260008054815260016020818152604090922083518155838301518051919361023b9385019291019061057f565b50604082015160028201805460ff1916600183600381111561025957fe5b02179055509050507f635eea5e1ac85102c6927bb3da243a983bf4c8139604efaf63d228e938b2b30560005482600060405180848152602001806020018360038111156102a257fe5b60ff168152602001828103825284818151815260200191508051906020019080838360005b838110156102df5781810151838201526020016102c7565b50505050905090810190601f16801561030c5780820380516001836020036101000a031916815260200191505b5094505050505060405180910390a150565b6103266105fd565b60008381526001602081815260409283902083516060810185528154815281840180548651600296821615610100026000190190911695909504601f810185900485028601850190965285855290949193858401939092908301828280156103cf5780601f106103a4576101008083540402835291602001916103cf565b820191906000526020600020905b8154815290600101906020018083116103b257829003601f168201915b5050509183525050600282015460209091019060ff1660038111156103f057fe5b60038111156103fb57fe5b90525090506040810182600381111561041057fe5b9081600381111561041d57fe5b9052506000838152600160208181526040909220835181558284015180518594929361044e9390850192019061057f565b50604082015160028201805460ff1916600183600381111561046c57fe5b02179055509050507fd76ef80cfb1ce0c70d0cbc0ab1b9f2f298a78f9fca5c841be963ae9a5d721bb4838260400151604051808381526020018260038111156104b157fe5b60ff1681526020019250505060405180910390a1505050565b600160208181526000928352604092839020805481840180548651600296821615610100026000190190911695909504601f810185900485028601850190965285855290949193929091908301828280156105665780601f1061053b57610100808354040283529160200191610566565b820191906000526020600020905b81548152906001019060200180831161054957829003601f168201915b5050506002909301549192505060ff1683565b60005481565b828054600181600116156101000203166002900490600052602060002090601f016020900481019282601f106105c057805160ff19168380011785556105ed565b828001600101855582156105ed579182015b828111156105ed5782518255916020019190600101906105d2565b506105f9929150610628565b5090565b604051806060016040528060008152602001606081526020016000600381111561062357fe5b905290565b61064291905b808211156105f9576000815560010161062e565b9056fea265627a7a72315820a4d3e52b784306af3767475dc3cade33a4c5328efb4b2d4c272b0077ee71bad264736f6c63430005100032",
  "source": "pragma solidity ^0.5.0;\n\ncontract TodoList {\n\n  enum TaskState { ToDo, Doing, Testing, Done }\n\n  uint public taskCount = 0;\n\n  struct Task {\n    uint id;\n    string content;\n    TaskState state;\n  }\n\n  mapping(uint => Task) public tasks;\n\n  event TaskCreated(\n    uint id,\n    string content,\n    TaskState state \n  );\n\n  event TaskStatusChanged(\n    uint id,\n    TaskState state\n  );\n\n  constructor() public {\n    createTask(\"Check out dappuniversity.com\");\n  }\n\n  function createTask(string memory _content) public {\n    taskCount ++;\n    tasks[taskCount] = Task(taskCount, _content, TaskState.ToDo);\n    emit TaskCreated(taskCount, _content, TaskState.ToDo);\n  }\n\n  function changeState(uint _id, TaskState _state) public {\n    Task memory _task = tasks[_id];\n    _task.state = _state;\n    tasks[_id] = _task;\n    emit TaskStatusChanged(_id, _task.state);\n  }\n\n  // function toggleCompleted(uint _id) public {\n  //   Task memory _task = tasks[_id];\n  //   _task.completed = !_task.completed;\n  //   tasks[_id] = _task;\n  //   emit TaskCompleted(_id, _task.completed);\n  // }\n\n}\n",
  "sourcePath": "/Users/daniel/utm/ada - aplicatii distribuite avansate/lab3/eth-todo-list/contracts/TodoList.sol",
  "compiler": {
    "name": "solc",
    "version": "0.5.16+commit.9c3226ce.Emscripten.clang"
  },
  "schemaVersion": "3.4.1",
  "updatedAt": "2021-06-05T16:41:24.147Z",
  "networkType": "ethereum",
  "devdoc": {
    "methods": {}
  },
  "userdoc": {
    "methods": {}
  }
}